{
  "_format": "hh-sol-artifact-1",
  "contractName": "VoterDemo",
  "sourceName": "contracts/VoterDemo.sol",
  "abi": [
    {
      "inputs": [
        {
          "internalType": "bytes32[]",
          "name": "_users",
          "type": "bytes32[]"
        },
        {
          "internalType": "uint256",
          "name": "_votersRoot",
          "type": "uint256"
        },
        {
          "internalType": "address",
          "name": "_verifier",
          "type": "address"
        }
      ],
      "stateMutability": "nonpayable",
      "type": "constructor"
    },
    {
      "anonymous": false,
      "inputs": [
        {
          "indexed": false,
          "internalType": "uint256",
          "name": "voter",
          "type": "uint256"
        }
      ],
      "name": "NewVote",
      "type": "event"
    },
    {
      "anonymous": false,
      "inputs": [
        {
          "indexed": false,
          "internalType": "uint256",
          "name": "nullifierHash",
          "type": "uint256"
        }
      ],
      "name": "NullifierHashAdded",
      "type": "event"
    },
    {
      "anonymous": false,
      "inputs": [
        {
          "indexed": true,
          "internalType": "address",
          "name": "previousOwner",
          "type": "address"
        },
        {
          "indexed": true,
          "internalType": "address",
          "name": "newOwner",
          "type": "address"
        }
      ],
      "name": "OwnershipTransferred",
      "type": "event"
    },
    {
      "inputs": [],
      "name": "getRatingAllExpensive",
      "outputs": [
        {
          "internalType": "bytes32[]",
          "name": "",
          "type": "bytes32[]"
        },
        {
          "internalType": "uint256[]",
          "name": "",
          "type": "uint256[]"
        }
      ],
      "stateMutability": "view",
      "type": "function"
    },
    {
      "inputs": [
        {
          "internalType": "bytes32",
          "name": "_user",
          "type": "bytes32"
        }
      ],
      "name": "getRatingByUser",
      "outputs": [
        {
          "internalType": "uint256",
          "name": "",
          "type": "uint256"
        }
      ],
      "stateMutability": "view",
      "type": "function"
    },
    {
      "inputs": [
        {
          "internalType": "uint256",
          "name": "_i",
          "type": "uint256"
        }
      ],
      "name": "getRatingbyId",
      "outputs": [
        {
          "internalType": "uint256",
          "name": "",
          "type": "uint256"
        }
      ],
      "stateMutability": "view",
      "type": "function"
    },
    {
      "inputs": [],
      "name": "getUsersArr",
      "outputs": [
        {
          "internalType": "bytes32[]",
          "name": "",
          "type": "bytes32[]"
        }
      ],
      "stateMutability": "view",
      "type": "function"
    },
    {
      "inputs": [],
      "name": "getUsersArrLength",
      "outputs": [
        {
          "internalType": "uint256",
          "name": "",
          "type": "uint256"
        }
      ],
      "stateMutability": "view",
      "type": "function"
    },
    {
      "inputs": [],
      "name": "getWinner",
      "outputs": [
        {
          "internalType": "bytes32",
          "name": "",
          "type": "bytes32"
        },
        {
          "internalType": "uint256",
          "name": "",
          "type": "uint256"
        }
      ],
      "stateMutability": "view",
      "type": "function"
    },
    {
      "inputs": [],
      "name": "owner",
      "outputs": [
        {
          "internalType": "address",
          "name": "",
          "type": "address"
        }
      ],
      "stateMutability": "view",
      "type": "function"
    },
    {
      "inputs": [],
      "name": "renounceOwnership",
      "outputs": [],
      "stateMutability": "nonpayable",
      "type": "function"
    },
    {
      "inputs": [
        {
          "internalType": "address",
          "name": "newOwner",
          "type": "address"
        }
      ],
      "name": "transferOwnership",
      "outputs": [],
      "stateMutability": "nonpayable",
      "type": "function"
    },
    {
      "inputs": [],
      "name": "verifier",
      "outputs": [
        {
          "internalType": "contract IVerifier",
          "name": "",
          "type": "address"
        }
      ],
      "stateMutability": "view",
      "type": "function"
    },
    {
      "inputs": [
        {
          "internalType": "bytes32",
          "name": "_user",
          "type": "bytes32"
        },
        {
          "internalType": "bytes32",
          "name": "_vote",
          "type": "bytes32"
        },
        {
          "internalType": "uint256",
          "name": "_voter",
          "type": "uint256"
        },
        {
          "internalType": "uint256",
          "name": "_nullifierHash",
          "type": "uint256"
        },
        {
          "internalType": "uint256[8]",
          "name": "_proof",
          "type": "uint256[8]"
        }
      ],
      "name": "vote",
      "outputs": [],
      "stateMutability": "nonpayable",
      "type": "function"
    },
    {
      "inputs": [],
      "name": "votersRoot",
      "outputs": [
        {
          "internalType": "uint256",
          "name": "",
          "type": "uint256"
        }
      ],
      "stateMutability": "view",
      "type": "function"
    }
  ],
  "bytecode": "0x6080604052600a6004553480156200001657600080fd5b5060405162001f7738038062001f7783398181016040528101906200003c919062000372565b6200005c620000506200014c60201b60201c565b6200015460201b60201c565b8260069080519060200190620000749291906200021a565b5060005b600680549050811015620000fa5760006008600060068481548110620000c7577f4e487b7100000000000000000000000000000000000000000000000000000000600052603260045260246000fd5b90600052602060002001548152602001908152602001600020819055508080620000f190620004b7565b91505062000078565b508160028190555080600360006101000a81548173ffffffffffffffffffffffffffffffffffffffff021916908373ffffffffffffffffffffffffffffffffffffffff160217905550505050620005c2565b600033905090565b6000600160009054906101000a900473ffffffffffffffffffffffffffffffffffffffff16905081600160006101000a81548173ffffffffffffffffffffffffffffffffffffffff021916908373ffffffffffffffffffffffffffffffffffffffff1602179055508173ffffffffffffffffffffffffffffffffffffffff168173ffffffffffffffffffffffffffffffffffffffff167f8be0079c531659141344cd1fd0a4f28419497f9722a3daafe3b4186f6b6457e060405160405180910390a35050565b82805482825590600052602060002090810192821562000259579160200282015b82811115620002585782518255916020019190600101906200023b565b5b5090506200026891906200026c565b5090565b5b80821115620002875760008160009055506001016200026d565b5090565b6000620002a26200029c846200040a565b620003e1565b90508083825260208201905082856020860282011115620002c257600080fd5b60005b85811015620002f65781620002db888262000344565b845260208401935060208301925050600181019050620002c5565b5050509392505050565b600081519050620003118162000574565b92915050565b600082601f8301126200032957600080fd5b81516200033b8482602086016200028b565b91505092915050565b60008151905062000355816200058e565b92915050565b6000815190506200036c81620005a8565b92915050565b6000806000606084860312156200038857600080fd5b600084015167ffffffffffffffff811115620003a357600080fd5b620003b18682870162000317565b9350506020620003c4868287016200035b565b9250506040620003d78682870162000300565b9150509250925092565b6000620003ed62000400565b9050620003fb828262000481565b919050565b6000604051905090565b600067ffffffffffffffff82111562000428576200042762000534565b5b602082029050602081019050919050565b6000620004468262000457565b9050919050565b6000819050919050565b600073ffffffffffffffffffffffffffffffffffffffff82169050919050565b6000819050919050565b6200048c8262000563565b810181811067ffffffffffffffff82111715620004ae57620004ad62000534565b5b80604052505050565b6000620004c48262000477565b91507fffffffffffffffffffffffffffffffffffffffffffffffffffffffffffffffff821415620004fa57620004f962000505565b5b600182019050919050565b7f4e487b7100000000000000000000000000000000000000000000000000000000600052601160045260246000fd5b7f4e487b7100000000000000000000000000000000000000000000000000000000600052604160045260246000fd5b6000601f19601f8301169050919050565b6200057f8162000439565b81146200058b57600080fd5b50565b62000599816200044d565b8114620005a557600080fd5b50565b620005b38162000477565b8114620005bf57600080fd5b50565b6119a580620005d26000396000f3fe608060405234801561001057600080fd5b50600436106100b45760003560e01c80638e7ea5b2116100715780638e7ea5b214610169578063c510f26014610188578063db690bb7146101a7578063e7b07a6e146101d7578063f2fde38b146101f5578063fc52029c14610211576100b4565b80632b7ac3f3146100b95780633a0c504f146100d757806356699adf14610107578063715018a614610125578063797223e21461012f5780638da5cb5b1461014b575b600080fd5b6100c161022f565b6040516100ce919061149b565b60405180910390f35b6100f160048036038101906100ec9190610f2f565b610255565b6040516100fe9190611576565b60405180910390f35b61010f610272565b60405161011c91906113d2565b60405180910390f35b61012d6102ca565b005b61014960048036038101906101449190610f58565b610352565b005b6101536104bc565b60405161016091906113b7565b60405180910390f35b6101716104e6565b60405161017f929190611472565b60405180910390f35b610190610505565b60405161019e9291906113f4565b60405180910390f35b6101c160048036038101906101bc9190610fd0565b610752565b6040516101ce9190611576565b60405180910390f35b6101df6107b3565b6040516101ec9190611576565b60405180910390f35b61020f600480360381019061020a9190610f06565b6107b9565b005b6102196108b1565b6040516102269190611576565b60405180910390f35b600360009054906101000a900473ffffffffffffffffffffffffffffffffffffffff1681565b600060086000838152602001908152602001600020549050919050565b606060068054806020026020016040519081016040528092919081815260200182805480156102c057602002820191906000526020600020905b8154815260200190600101908083116102ac575b5050505050905090565b6102d26108be565b73ffffffffffffffffffffffffffffffffffffffff166102f06104bc565b73ffffffffffffffffffffffffffffffffffffffff1614610346576040517f08c379a000000000000000000000000000000000000000000000000000000000815260040161033d90611516565b60405180910390fd5b61035060006108c6565b565b61035a6108be565b73ffffffffffffffffffffffffffffffffffffffff166103786104bc565b73ffffffffffffffffffffffffffffffffffffffff16146103ce576040517f08c379a00000000000000000000000000000000000000000000000000000000081526004016103c590611516565b60405180910390fd5b6007600084815260200190815260200160002060009054906101000a900460ff161561042f576040517f08c379a000000000000000000000000000000000000000000000000000000000815260040161042690611536565b60405180910390fd5b610463846002548460025485600360009054906101000a900473ffffffffffffffffffffffffffffffffffffffff1661098c565b61046c85610ce5565b61047583610d81565b61047e82610e3a565b7f89b1d6344c948134ebf34cc76a259a80dcf351c264adba174b6ccad8a7ce797d836040516104ad9190611576565b60405180910390a15050505050565b6000600160009054906101000a900473ffffffffffffffffffffffffffffffffffffffff16905090565b60008060006104f6600554610255565b90506005548192509250509091565b60608060006105126108b1565b905060008167ffffffffffffffff811115610556577f4e487b7100000000000000000000000000000000000000000000000000000000600052604160045260246000fd5b6040519080825280602002602001820160405280156105845781602001602082028036833780820191505090505b50905060008267ffffffffffffffff8111156105c9577f4e487b7100000000000000000000000000000000000000000000000000000000600052604160045260246000fd5b6040519080825280602002602001820160405280156105f75781602001602082028036833780820191505090505b50905060005b6006805490508110156107445760068181548110610644577f4e487b7100000000000000000000000000000000000000000000000000000000600052603260045260246000fd5b9060005260206000200154838281518110610688577f4e487b7100000000000000000000000000000000000000000000000000000000600052603260045260246000fd5b60200260200101818152505060086000600683815481106106d2577f4e487b7100000000000000000000000000000000000000000000000000000000600052603260045260246000fd5b9060005260206000200154815260200190815260200160002054828281518110610725577f4e487b7100000000000000000000000000000000000000000000000000000000600052603260045260246000fd5b602002602001018181525050808061073c90611766565b9150506105fd565b508181945094505050509091565b60006008600060068481548110610792577f4e487b7100000000000000000000000000000000000000000000000000000000600052603260045260246000fd5b90600052602060002001548152602001908152602001600020549050919050565b60025481565b6107c16108be565b73ffffffffffffffffffffffffffffffffffffffff166107df6104bc565b73ffffffffffffffffffffffffffffffffffffffff1614610835576040517f08c379a000000000000000000000000000000000000000000000000000000000815260040161082c90611516565b60405180910390fd5b600073ffffffffffffffffffffffffffffffffffffffff168173ffffffffffffffffffffffffffffffffffffffff1614156108a5576040517f08c379a000000000000000000000000000000000000000000000000000000000815260040161089c906114d6565b60405180910390fd5b6108ae816108c6565b50565b6000600680549050905090565b600033905090565b6000600160009054906101000a900473ffffffffffffffffffffffffffffffffffffffff16905081600160006101000a81548173ffffffffffffffffffffffffffffffffffffffff021916908373ffffffffffffffffffffffffffffffffffffffff1602179055508173ffffffffffffffffffffffffffffffffffffffff168173ffffffffffffffffffffffffffffffffffffffff167f8be0079c531659141344cd1fd0a4f28419497f9722a3daafe3b4186f6b6457e060405160405180910390a35050565b60008085815260200190815260200160002060009054906101000a900460ff16156109ec576040517f08c379a00000000000000000000000000000000000000000000000000000000081526004016109e3906114b6565b60405180910390fd5b60006109f787610e68565b90508173ffffffffffffffffffffffffffffffffffffffff16635fe8c13b604051806040016040528086600060088110610a5a577f4e487b7100000000000000000000000000000000000000000000000000000000600052603260045260246000fd5b6020020135815260200186600160088110610a9e577f4e487b7100000000000000000000000000000000000000000000000000000000600052603260045260246000fd5b60200201358152506040518060400160405280604051806040016040528089600260088110610af6577f4e487b7100000000000000000000000000000000000000000000000000000000600052603260045260246000fd5b6020020135815260200189600360088110610b3a577f4e487b7100000000000000000000000000000000000000000000000000000000600052603260045260246000fd5b60200201358152508152602001604051806040016040528089600460088110610b8c577f4e487b7100000000000000000000000000000000000000000000000000000000600052603260045260246000fd5b6020020135815260200189600560088110610bd0577f4e487b7100000000000000000000000000000000000000000000000000000000600052603260045260246000fd5b6020020135815250815250604051806040016040528088600660088110610c20577f4e487b7100000000000000000000000000000000000000000000000000000000600052603260045260246000fd5b6020020135815260200188600760088110610c64577f4e487b7100000000000000000000000000000000000000000000000000000000600052603260045260246000fd5b602002013581525060405180608001604052808c81526020018b81526020018781526020018a8152506040518563ffffffff1660e01b8152600401610cac949392919061142b565b60006040518083038186803b158015610cc457600080fd5b505afa158015610cd8573d6000803e3d6000fd5b5050505050505050505050565b6000801b60055414610d2c576040517f08c379a0000000000000000000000000000000000000000000000000000000008152600401610d23906114f6565b60405180910390fd5b6001600860008381526020019081526020016000206000828254610d5091906116a6565b9250508190555060045460086000838152602001908152602001600020541415610d7e57610d7d81610e9f565b5b50565b6007600082815260200190815260200160002060009054906101000a900460ff1615610de2576040517f08c379a0000000000000000000000000000000000000000000000000000000008152600401610dd990611556565b60405180910390fd5b60016007600083815260200190815260200160002060006101000a81548160ff021916908315150217905550600981908060018154018082558091505060019003906000526020600020016000909190919091505550565b600160008083815260200190815260200160002060006101000a81548160ff02191690831515021790555050565b6000600882604051602001610e7d919061139c565b6040516020818303038152906040528051906020012060001c901c9050919050565b8060058190555050565b600081359050610eb88161192a565b92915050565b600081905082602060080282011115610ed657600080fd5b92915050565b600081359050610eeb81611941565b92915050565b600081359050610f0081611958565b92915050565b600060208284031215610f1857600080fd5b6000610f2684828501610ea9565b91505092915050565b600060208284031215610f4157600080fd5b6000610f4f84828501610edc565b91505092915050565b60008060008060006101808688031215610f7157600080fd5b6000610f7f88828901610edc565b9550506020610f9088828901610edc565b9450506040610fa188828901610ef1565b9350506060610fb288828901610ef1565b9250506080610fc388828901610ebe565b9150509295509295909350565b600060208284031215610fe257600080fd5b6000610ff084828501610ef1565b91505092915050565b60006110058383611105565b60408301905092915050565b600061101d8383611268565b60208301905092915050565b6000611035838361137e565b60208301905092915050565b61104a816116fc565b82525050565b611059816115cf565b6110638184611647565b925061106e82611591565b8060005b8381101561109f5781516110868782610ff9565b965061109183611606565b925050600181019050611072565b505050505050565b60006110b2826115da565b6110bc8185611652565b93506110c78361159b565b8060005b838110156110f85781516110df8882611011565b97506110ea83611613565b9250506001810190506110cb565b5085935050505092915050565b61110e816115e5565b6111188184611663565b9250611123826115ab565b8060005b8381101561115457815161113b8782611029565b965061114683611620565b925050600181019050611127565b505050505050565b611165816115e5565b61116f818461166e565b925061117a826115ab565b8060005b838110156111ab5781516111928782611029565b965061119d83611620565b92505060018101905061117e565b505050505050565b6111bc816115f0565b6111c68184611679565b92506111d1826115b5565b8060005b838110156112025781516111e98782611029565b96506111f48361162d565b9250506001810190506111d5565b505050505050565b6000611215826115fb565b61121f8185611684565b935061122a836115bf565b8060005b8381101561125b5781516112428882611029565b975061124d8361163a565b92505060018101905061122e565b5085935050505092915050565b6112718161170e565b82525050565b6112808161170e565b82525050565b6112976112928261170e565b6117af565b82525050565b6112a681611742565b82525050565b60006112b9603683611695565b91506112c4826117e8565b604082019050919050565b60006112dc602683611695565b91506112e782611837565b604082019050919050565b60006112ff601183611695565b915061130a82611886565b602082019050919050565b6000611322602083611695565b915061132d826118af565b602082019050919050565b6000611345601583611695565b9150611350826118d8565b602082019050919050565b6000611368600d83611695565b915061137382611901565b602082019050919050565b61138781611738565b82525050565b61139681611738565b82525050565b60006113a88284611286565b60208201915081905092915050565b60006020820190506113cc6000830184611041565b92915050565b600060208201905081810360008301526113ec81846110a7565b905092915050565b6000604082019050818103600083015261140e81856110a7565b90508181036020830152611422818461120a565b90509392505050565b600061018082019050611441600083018761115c565b61144e6040830186611050565b61145b60c083018561115c565b6114696101008301846111b3565b95945050505050565b60006040820190506114876000830185611277565b611494602083018461138d565b9392505050565b60006020820190506114b0600083018461129d565b92915050565b600060208201905081810360008301526114cf816112ac565b9050919050565b600060208201905081810360008301526114ef816112cf565b9050919050565b6000602082019050818103600083015261150f816112f2565b9050919050565b6000602082019050818103600083015261152f81611315565b9050919050565b6000602082019050818103600083015261154f81611338565b9050919050565b6000602082019050818103600083015261156f8161135b565b9050919050565b600060208201905061158b600083018461138d565b92915050565b6000819050919050565b6000819050602082019050919050565b6000819050919050565b6000819050919050565b6000819050602082019050919050565b600060029050919050565b600081519050919050565b600060029050919050565b600060049050919050565b600081519050919050565b6000602082019050919050565b6000602082019050919050565b6000602082019050919050565b6000602082019050919050565b6000602082019050919050565b600081905092915050565b600082825260208201905092915050565b600081905092915050565b600081905092915050565b600081905092915050565b600082825260208201905092915050565b600082825260208201905092915050565b60006116b182611738565b91506116bc83611738565b9250827fffffffffffffffffffffffffffffffffffffffffffffffffffffffffffffffff038211156116f1576116f06117b9565b5b828201905092915050565b600061170782611718565b9050919050565b6000819050919050565b600073ffffffffffffffffffffffffffffffffffffffff82169050919050565b6000819050919050565b600061174d82611754565b9050919050565b600061175f82611718565b9050919050565b600061177182611738565b91507fffffffffffffffffffffffffffffffffffffffffffffffffffffffffffffffff8214156117a4576117a36117b9565b5b600182019050919050565b6000819050919050565b7f4e487b7100000000000000000000000000000000000000000000000000000000600052601160045260246000fd5b7f53656d6170686f7265436f72653a20796f752063616e6e6f742075736520746860008201527f652073616d65206e756c6c696669657220747769636500000000000000000000602082015250565b7f4f776e61626c653a206e6577206f776e657220697320746865207a65726f206160008201527f6464726573730000000000000000000000000000000000000000000000000000602082015250565b7f766f74696e672068617320656e6465642e000000000000000000000000000000600082015250565b7f4f776e61626c653a2063616c6c6572206973206e6f7420746865206f776e6572600082015250565b7f596f752063616e6e6f7420766f74652074776963650000000000000000000000600082015250565b7f416c726561647920616464656400000000000000000000000000000000000000600082015250565b611933816116fc565b811461193e57600080fd5b50565b61194a8161170e565b811461195557600080fd5b50565b61196181611738565b811461196c57600080fd5b5056fea2646970667358221220ae09e2fbc7dd602fb182bc1dc4045a4ca82999d59c4504000fa1cf1f6b41df6c64736f6c63430008040033",
  "linkReferences": {},
  "deployedLinkReferences": {}
}